{
  "contractName": "Loaning",
  "abi": [
    {
      "constant": false,
      "inputs": [],
      "name": "checkGoalReached",
      "outputs": [],
      "payable": false,
      "stateMutability": "nonpayable",
      "type": "function"
    },
    {
      "constant": false,
      "inputs": [],
      "name": "closeLoan",
      "outputs": [],
      "payable": false,
      "stateMutability": "nonpayable",
      "type": "function"
    },
    {
      "constant": true,
      "inputs": [],
      "name": "priceOfProperty",
      "outputs": [
        {
          "name": "",
          "type": "uint256"
        }
      ],
      "payable": false,
      "stateMutability": "view",
      "type": "function"
    },
    {
      "constant": true,
      "inputs": [],
      "name": "loanRequestAmount",
      "outputs": [
        {
          "name": "",
          "type": "uint256"
        }
      ],
      "payable": false,
      "stateMutability": "view",
      "type": "function"
    },
    {
      "constant": true,
      "inputs": [],
      "name": "totalAmountLoaned",
      "outputs": [
        {
          "name": "",
          "type": "uint256"
        }
      ],
      "payable": false,
      "stateMutability": "view",
      "type": "function"
    },
    {
      "constant": true,
      "inputs": [
        {
          "name": "",
          "type": "address"
        }
      ],
      "name": "balanceOf",
      "outputs": [
        {
          "name": "",
          "type": "uint256"
        }
      ],
      "payable": false,
      "stateMutability": "view",
      "type": "function"
    },
    {
      "constant": true,
      "inputs": [],
      "name": "buyer",
      "outputs": [
        {
          "name": "",
          "type": "address"
        }
      ],
      "payable": false,
      "stateMutability": "view",
      "type": "function"
    },
    {
      "constant": true,
      "inputs": [],
      "name": "interestRate",
      "outputs": [
        {
          "name": "",
          "type": "uint256"
        }
      ],
      "payable": false,
      "stateMutability": "view",
      "type": "function"
    },
    {
      "constant": false,
      "inputs": [],
      "name": "safeWithdrawal",
      "outputs": [],
      "payable": false,
      "stateMutability": "nonpayable",
      "type": "function"
    },
    {
      "inputs": [
        {
          "name": "propertyValueInEther",
          "type": "uint256"
        },
        {
          "name": "requestedAmountInEther",
          "type": "uint256"
        }
      ],
      "payable": false,
      "stateMutability": "nonpayable",
      "type": "constructor"
    },
    {
      "payable": true,
      "stateMutability": "payable",
      "type": "fallback"
    },
    {
      "anonymous": false,
      "inputs": [
        {
          "indexed": false,
          "name": "recipient",
          "type": "address"
        },
        {
          "indexed": false,
          "name": "totalAmountLoaned",
          "type": "uint256"
        }
      ],
      "name": "LoanFilled",
      "type": "event"
    },
    {
      "anonymous": false,
      "inputs": [
        {
          "indexed": false,
          "name": "loaner",
          "type": "address"
        },
        {
          "indexed": false,
          "name": "amount",
          "type": "uint256"
        },
        {
          "indexed": false,
          "name": "isLoan",
          "type": "bool"
        }
      ],
      "name": "FundTransfer",
      "type": "event"
    }
  ],
  "bytecode": "0x60606040526000600960006101000a81548160ff0219169083151502179055506000600960016101000a81548160ff021916908315150217905550341561004557600080fd5b60405160408061091983398101604052808051906020019091908051906020019091905050336000806101000a81548173ffffffffffffffffffffffffffffffffffffffff021916908373ffffffffffffffffffffffffffffffffffffffff160217905550670de0b6b3a76400008202600481905550670de0b6b3a7640000810260018190555060646006819055505050610834806100e56000396000f300606060405260043610610099576000357c0100000000000000000000000000000000000000000000000000000000900463ffffffff16806301cb3b20146101b3578063232fa733146101c85780634fe2241a146101dd5780635375e1ca146102065780636eacc1481461022f57806370a08231146102585780637150d8ae146102a55780637c3a00fd146102fa578063fd6b7ef814610323575b6000600960019054906101000a900460ff161515156100b757600080fd5b34905060015481111515156100cb57600080fd5b80600560003373ffffffffffffffffffffffffffffffffffffffff1673ffffffffffffffffffffffffffffffffffffffff1681526020019081526020016000206000828254019250508190555080600260008282540192505081905550806001600082825403925050819055507fe842aea7a5f1b01049d752008c53c52890b1a6daf660cf39e8eec506112bbdf633826001604051808473ffffffffffffffffffffffffffffffffffffffff1673ffffffffffffffffffffffffffffffffffffffff16815260200183815260200182151515158152602001935050505060405180910390a150005b34156101be57600080fd5b6101c6610338565b005b34156101d357600080fd5b6101db6103f0565b005b34156101e857600080fd5b6101f0610468565b6040518082815260200191505060405180910390f35b341561021157600080fd5b61021961046e565b6040518082815260200191505060405180910390f35b341561023a57600080fd5b610242610474565b6040518082815260200191505060405180910390f35b341561026357600080fd5b61028f600480803573ffffffffffffffffffffffffffffffffffffffff1690602001909190505061047a565b6040518082815260200191505060405180910390f35b34156102b057600080fd5b6102b8610492565b604051808273ffffffffffffffffffffffffffffffffffffffff1673ffffffffffffffffffffffffffffffffffffffff16815260200191505060405180910390f35b341561030557600080fd5b61030d6104b7565b6040518082815260200191505060405180910390f35b341561032e57600080fd5b6103366104bd565b005b60015460025414156103ee576001600960006101000a81548160ff0219169083151502179055507fee83e807554a6f74ea1994c12aabfdd8e8a31246394aa2093079d03e3d60b1676000809054906101000a900473ffffffffffffffffffffffffffffffffffffffff16600254604051808373ffffffffffffffffffffffffffffffffffffffff1673ffffffffffffffffffffffffffffffffffffffff1681526020018281526020019250505060405180910390a15b565b6000809054906101000a900473ffffffffffffffffffffffffffffffffffffffff1673ffffffffffffffffffffffffffffffffffffffff163373ffffffffffffffffffffffffffffffffffffffff1614151561044b57600080fd5b6000600960006101000a81548160ff021916908315150217905550565b60045481565b60015481565b60025481565b60056020528060005260406000206000915090505481565b6000809054906101000a900473ffffffffffffffffffffffffffffffffffffffff1681565b60035481565b6000600960009054906101000a900460ff16151561066357600560003373ffffffffffffffffffffffffffffffffffffffff1673ffffffffffffffffffffffffffffffffffffffff1681526020019081526020016000205490506000600560003373ffffffffffffffffffffffffffffffffffffffff1673ffffffffffffffffffffffffffffffffffffffff168152602001908152602001600020819055506000811115610662573373ffffffffffffffffffffffffffffffffffffffff166108fc829081150290604051600060405180830381858888f193505050501561061c577fe842aea7a5f1b01049d752008c53c52890b1a6daf660cf39e8eec506112bbdf633826000604051808473ffffffffffffffffffffffffffffffffffffffff1673ffffffffffffffffffffffffffffffffffffffff16815260200183815260200182151515158152602001935050505060405180910390a1610661565b80600560003373ffffffffffffffffffffffffffffffffffffffff1673ffffffffffffffffffffffffffffffffffffffff168152602001908152602001600020819055505b5b5b600960009054906101000a900460ff1680156106cb57503373ffffffffffffffffffffffffffffffffffffffff166000809054906101000a900473ffffffffffffffffffffffffffffffffffffffff1673ffffffffffffffffffffffffffffffffffffffff16145b15610805576000809054906101000a900473ffffffffffffffffffffffffffffffffffffffff1673ffffffffffffffffffffffffffffffffffffffff166108fc6002549081150290604051600060405180830381858888f19350505050156107e8576000600960026101000a81548160ff0219169083151502179055507fe842aea7a5f1b01049d752008c53c52890b1a6daf660cf39e8eec506112bbdf66000809054906101000a900473ffffffffffffffffffffffffffffffffffffffff166002546000604051808473ffffffffffffffffffffffffffffffffffffffff1673ffffffffffffffffffffffffffffffffffffffff16815260200183815260200182151515158152602001935050505060405180910390a1610804565b6000600960006101000a81548160ff0219169083151502179055505b5b505600a165627a7a723058204ebff58b95b081189c4f6721bff0106d1408883b84d6d099254c2fae58abcd4e0029",
  "source": "pragma solidity ^0.4.11;\n\n// contract ERC20 {\n//     function transfer(address _to, uint256 _value) public;\n//     function buy() payable public;\n// }\n\ncontract Loaning {\n\n    address public buyer;\n    uint public loanRequestAmount;\n    uint public totalAmountLoaned;\n    uint public interestRate;\n    uint public priceOfProperty;\n    // ERC20 public Token;\n\n    mapping(address => uint256) public balanceOf;\n\n    //mapping(address => uint256) public ownerships;\n    uint totalSupply;\n    uint totalDividends;\n    uint decimals;\n\n    bool loanFilled = false;\n    bool loanClosed = false;\n    bool loanPaid;\n\n    event LoanFilled(address recipient, uint totalAmountLoaned);\n    event FundTransfer(address loaner, uint amount, bool isLoan);\n\n    /**\n    * Constructor function\n    *\n    * Buyer is set as owner\n     */\n    function Loaning(\n        uint propertyValueInEther,\n        uint requestedAmountInEther\n    ) {\n        buyer = msg.sender;\n        priceOfProperty = propertyValueInEther * 1 ether;\n        loanRequestAmount = requestedAmountInEther * 1 ether;\n        // Token = ERC20(0x1f6864af9fd76178b6819ad13ef0238481633cf1); //REPLACE WITH TOKEN ADDRESS\n        totalSupply = 100;\n        //ownerships[buyer] += calcOwnership(propertyValueInEther - loanRequestAmount, loanRequestAmount);\n        // Token.buy\n    }\n\n    /**\n    * Fallback function to call whenever anyone sends funds\n     */\n    function () payable {\n        require(!loanClosed);\n        uint amount = msg.value;\n        require(amount <= loanRequestAmount);\n        balanceOf[msg.sender] += amount;\n        totalAmountLoaned += amount;\n       // ownerships[msg.sender] = calcOwnership(amount, loanRequestAmount);\n        loanRequestAmount -= amount;\n        FundTransfer(msg.sender, amount, true);\n    }\n\n    /**\n    * Provides buyer an option to close the loan\n     */\n    function closeLoan() external {\n        require(msg.sender==buyer);\n        loanFilled = false;\n    }\n\n    /**\n    * Check if goal was reached\n    * Checks if the goal or time limit has been reached and ends the campaign\n     */\n     function checkGoalReached() {\n         if (totalAmountLoaned == loanRequestAmount) {\n             loanFilled = true;\n             LoanFilled(buyer, totalAmountLoaned);\n         }\n     }\n\n     /**\n     * Withdraw the funds\n     * Checks to see if loanRequestAmount or time limit has been reached, and if so, and the funding goal was reached,\n     * sends the entire amount to the buyer.  If the loanRequestAmount was not reached, each contributor can withdraw\n     * the amount they contributed.\n      */\n    function safeWithdrawal() {\n        if (!loanFilled) {\n            uint amount = balanceOf[msg.sender];\n            balanceOf[msg.sender] = 0;\n            if (amount > 0) {\n                if (msg.sender.send(amount)) {\n                    FundTransfer(msg.sender, amount, false);\n                } else {\n                    balanceOf[msg.sender] = amount;\n                }\n            }\n        }\n\n        if (loanFilled && buyer == msg.sender) {\n            if (buyer.send(totalAmountLoaned)) {\n                loanPaid = false;\n                FundTransfer(buyer, totalAmountLoaned, false);\n            } else {\n                //If we fail to send the funds to the buyer, unlock loaners balance\n                loanFilled = false;\n            }\n        }\n\n    }\n\n    // function calcOwnership(uint payment, uint amountRemaining) public returns (uint256) {\n    //     return (amountRemaining - payment) / totalSupply;\n    // }\n\n    // function transferOwnership(address _to) public returns (bool success) {\n    //     uint256 oldOwnership = ownerships[msg.sender];\n    //     ownerships[msg.sender] = 0;\n    //     ownerships[_to] = oldOwnership;\n    //     return true;\n    // }\n\n    // function purchaseLoanerOwnership(address ownershipOwner) payable public returns (bool success) {\n    //   uint256 ownershipWorth = ownerships[ownershipOwner] * priceOfProperty;\n    //   uint amount = msg.value;\n    //   require(msg.sender.balance >= amount);\n    //   if (transferOwnership(msg.sender) && amount == ownershipWorth) {\n    //       ownershipOwner.transfer(amount);\n    //       return true;\n    //   }\n    // } \n}",
  "sourcePath": "/home/sid/Desktop/blockchain/split/Loans/contracts/Loaning.sol",
  "compiler": {
    "name": "solc",
    "version": "0.4.18+commit.9cf6e910.Emscripten.clang"
  },
  "schemaVersion": "1.0.1",
  "updatedAt": "2018-01-14T13:54:19.460Z"
}